{
  "contractName": "Auction",
  "abi": [
    {
      "inputs": [
        {
          "internalType": "contract HuiToken",
          "name": "_huiToken",
          "type": "address"
        },
        {
          "internalType": "uint256",
          "name": "_rate",
          "type": "uint256"
        }
      ],
      "stateMutability": "nonpayable",
      "type": "constructor"
    },
    {
      "anonymous": false,
      "inputs": [
        {
          "indexed": false,
          "internalType": "address",
          "name": "beneficiary",
          "type": "address"
        },
        {
          "indexed": false,
          "internalType": "uint256",
          "name": "amount",
          "type": "uint256"
        }
      ],
      "name": "BidStaked",
      "type": "event"
    },
    {
      "inputs": [
        {
          "internalType": "address",
          "name": "",
          "type": "address"
        }
      ],
      "name": "IsBidding",
      "outputs": [
        {
          "internalType": "bool",
          "name": "",
          "type": "bool"
        }
      ],
      "stateMutability": "view",
      "type": "function",
      "constant": true
    },
    {
      "inputs": [],
      "name": "auctionEnded",
      "outputs": [
        {
          "internalType": "bool",
          "name": "",
          "type": "bool"
        }
      ],
      "stateMutability": "view",
      "type": "function",
      "constant": true
    },
    {
      "inputs": [],
      "name": "closingRate",
      "outputs": [
        {
          "internalType": "uint256",
          "name": "",
          "type": "uint256"
        }
      ],
      "stateMutability": "view",
      "type": "function",
      "constant": true
    },
    {
      "inputs": [],
      "name": "closingTime",
      "outputs": [
        {
          "internalType": "uint256",
          "name": "",
          "type": "uint256"
        }
      ],
      "stateMutability": "view",
      "type": "function",
      "constant": true
    },
    {
      "inputs": [],
      "name": "currentRate",
      "outputs": [
        {
          "internalType": "uint256",
          "name": "",
          "type": "uint256"
        }
      ],
      "stateMutability": "view",
      "type": "function",
      "constant": true
    },
    {
      "inputs": [],
      "name": "huiToken",
      "outputs": [
        {
          "internalType": "contract HuiToken",
          "name": "",
          "type": "address"
        }
      ],
      "stateMutability": "view",
      "type": "function",
      "constant": true
    },
    {
      "inputs": [],
      "name": "openingRate",
      "outputs": [
        {
          "internalType": "uint256",
          "name": "",
          "type": "uint256"
        }
      ],
      "stateMutability": "view",
      "type": "function",
      "constant": true
    },
    {
      "inputs": [],
      "name": "openingTime",
      "outputs": [
        {
          "internalType": "uint256",
          "name": "",
          "type": "uint256"
        }
      ],
      "stateMutability": "view",
      "type": "function",
      "constant": true
    },
    {
      "inputs": [],
      "name": "owner",
      "outputs": [
        {
          "internalType": "address",
          "name": "",
          "type": "address"
        }
      ],
      "stateMutability": "view",
      "type": "function",
      "constant": true
    },
    {
      "inputs": [],
      "name": "reserveRate",
      "outputs": [
        {
          "internalType": "uint256",
          "name": "",
          "type": "uint256"
        }
      ],
      "stateMutability": "view",
      "type": "function",
      "constant": true
    },
    {
      "inputs": [
        {
          "internalType": "address",
          "name": "",
          "type": "address"
        }
      ],
      "name": "totalBidAmt",
      "outputs": [
        {
          "internalType": "uint256",
          "name": "",
          "type": "uint256"
        }
      ],
      "stateMutability": "view",
      "type": "function",
      "constant": true
    },
    {
      "inputs": [],
      "name": "totalPotMinTokens",
      "outputs": [
        {
          "internalType": "uint256",
          "name": "",
          "type": "uint256"
        }
      ],
      "stateMutability": "view",
      "type": "function",
      "constant": true
    },
    {
      "inputs": [],
      "name": "weiRaised",
      "outputs": [
        {
          "internalType": "uint256",
          "name": "",
          "type": "uint256"
        }
      ],
      "stateMutability": "view",
      "type": "function",
      "constant": true
    },
    {
      "inputs": [],
      "name": "startAuction",
      "outputs": [],
      "stateMutability": "nonpayable",
      "type": "function"
    },
    {
      "inputs": [
        {
          "internalType": "address",
          "name": "_beneficiary",
          "type": "address"
        }
      ],
      "name": "stakeBid",
      "outputs": [],
      "stateMutability": "payable",
      "type": "function",
      "payable": true
    },
    {
      "inputs": [],
      "name": "claimTokens",
      "outputs": [],
      "stateMutability": "nonpayable",
      "type": "function"
    }
  ],
  "bytecode": "0x608060405234801561001057600080fd5b50604051610b71380380610b718339818101604052604081101561003357600080fd5b810190808051906020019092919080519060200190929190505050816000806101000a81548173ffffffffffffffffffffffffffffffffffffffff021916908373ffffffffffffffffffffffffffffffffffffffff16021790555033600160006101000a81548173ffffffffffffffffffffffffffffffffffffffff021916908373ffffffffffffffffffffffffffffffffffffffff1602179055508060038190555060006007819055505050610a82806100ef6000396000f3fe608060405260043610610110576000357c010000000000000000000000000000000000000000000000000000000090048063842572e6116100a7578063b7a8807c11610076578063b7a8807c14610374578063f0622fe41461039f578063f9a6eb4314610408578063f9f8bdb71461045f57610110565b8063842572e61461025e57806386433374146102895780638da5cb5b146102b85780639af836ce1461030f57610110565b806348c54b9d116100e357806348c54b9d146101da5780634b6753bc146101f157806358d7bf801461021c5780636b64c7691461024757610110565b80630b72a2891461011557806339d65834146101405780634042b66f1461016b57806341bcae1214610196575b600080fd5b34801561012157600080fd5b5061012a61048a565b6040518082815260200191505060405180910390f35b34801561014c57600080fd5b50610155610490565b6040518082815260200191505060405180910390f35b34801561017757600080fd5b50610180610496565b6040518082815260200191505060405180910390f35b6101d8600480360360208110156101ac57600080fd5b81019080803573ffffffffffffffffffffffffffffffffffffffff16906020019092919050505061049c565b005b3480156101e657600080fd5b506101ef61074c565b005b3480156101fd57600080fd5b50610206610921565b6040518082815260200191505060405180910390f35b34801561022857600080fd5b50610231610927565b6040518082815260200191505060405180910390f35b34801561025357600080fd5b5061025c61092d565b005b34801561026a57600080fd5b506102736109a4565b6040518082815260200191505060405180910390f35b34801561029557600080fd5b5061029e6109aa565b604051808215151515815260200191505060405180910390f35b3480156102c457600080fd5b506102cd6109bd565b604051808273ffffffffffffffffffffffffffffffffffffffff1673ffffffffffffffffffffffffffffffffffffffff16815260200191505060405180910390f35b34801561031b57600080fd5b5061035e6004803603602081101561033257600080fd5b81019080803573ffffffffffffffffffffffffffffffffffffffff1690602001909291905050506109e3565b6040518082815260200191505060405180910390f35b34801561038057600080fd5b506103896109fb565b6040518082815260200191505060405180910390f35b3480156103ab57600080fd5b506103ee600480360360208110156103c257600080fd5b81019080803573ffffffffffffffffffffffffffffffffffffffff169060200190929190505050610a01565b604051808215151515815260200191505060405180910390f35b34801561041457600080fd5b5061041d610a21565b604051808273ffffffffffffffffffffffffffffffffffffffff1673ffffffffffffffffffffffffffffffffffffffff16815260200191505060405180910390f35b34801561046b57600080fd5b50610474610a46565b6040518082815260200191505060405180910390f35b60075481565b60065481565b60025481565b600073ffffffffffffffffffffffffffffffffffffffff168173ffffffffffffffffffffffffffffffffffffffff1614156104d657600080fd5b6000341161054c576040517f08c379a000000000000000000000000000000000000000000000000000000000815260040180806020018281038252601a8152602001807f616d6f756e742063616e6e6f742062652030206f72206c65737300000000000081525060200191505060405180910390fd5b346002540160028190555060011515600c60008373ffffffffffffffffffffffffffffffffffffffff1673ffffffffffffffffffffffffffffffffffffffff16815260200190815260200160002060009054906101000a900460ff16151514156106025734600b60008373ffffffffffffffffffffffffffffffffffffffff1673ffffffffffffffffffffffffffffffffffffffff1681526020019081526020016000206000828254019250508190555061069f565b6001600c60008373ffffffffffffffffffffffffffffffffffffffff1673ffffffffffffffffffffffffffffffffffffffff16815260200190815260200160002060006101000a81548160ff02191690831515021790555034600b60008373ffffffffffffffffffffffffffffffffffffffff1673ffffffffffffffffffffffffffffffffffffffff168152602001908152602001600020819055505b7f8e463bcb5501614a05774b1ed0fe2e132ed9459a4cb7fde765ef52297ea6711481600b60008473ffffffffffffffffffffffffffffffffffffffff1673ffffffffffffffffffffffffffffffffffffffff16815260200190815260200160002054604051808373ffffffffffffffffffffffffffffffffffffffff1673ffffffffffffffffffffffffffffffffffffffff1681526020018281526020019250505060405180910390a150565b60011515600860009054906101000a900460ff1615151461076c57600080fd5b60011515600c60003373ffffffffffffffffffffffffffffffffffffffff1673ffffffffffffffffffffffffffffffffffffffff16815260200190815260200160002060009054906101000a900460ff161515146107c957600080fd5b6000600b60003373ffffffffffffffffffffffffffffffffffffffff1673ffffffffffffffffffffffffffffffffffffffff1681526020019081526020016000205490506000600654828161081a57fe5b0490506000809054906101000a900473ffffffffffffffffffffffffffffffffffffffff1673ffffffffffffffffffffffffffffffffffffffff1663a9059cbb33836040518363ffffffff167c0100000000000000000000000000000000000000000000000000000000028152600401808373ffffffffffffffffffffffffffffffffffffffff1673ffffffffffffffffffffffffffffffffffffffff16815260200182815260200192505050602060405180830381600087803b1580156108e157600080fd5b505af11580156108f5573d6000803e3d6000fd5b505050506040513d602081101561090b57600080fd5b8101908080519060200190929190505050505050565b600a5481565b60055481565b600160009054906101000a900473ffffffffffffffffffffffffffffffffffffffff1673ffffffffffffffffffffffffffffffffffffffff163373ffffffffffffffffffffffffffffffffffffffff161461098757600080fd5b6000600860006101000a81548160ff021916908315150217905550565b60035481565b600860009054906101000a900460ff1681565b600160009054906101000a900473ffffffffffffffffffffffffffffffffffffffff1681565b600b6020528060005260406000206000915090505481565b60095481565b600c6020528060005260406000206000915054906101000a900460ff1681565b6000809054906101000a900473ffffffffffffffffffffffffffffffffffffffff1681565b6004548156fea2646970667358221220b98ee5ba3d9271c203902e0952b55746a9358add60079eab7e706618fe40380864736f6c63430006020033",
  "source": "pragma solidity ^0.6.2;\n\nimport \"./HuiToken.sol\";\n\ncontract Auction {\n    //hello\n    HuiToken public huiToken;\n    address public owner;\n    uint256 public weiRaised;\n\n    uint256 public openingRate;\n    uint256 public currentRate;\n    uint256 public reserveRate;\n    uint256 public closingRate;\n\n    uint256 public totalPotMinTokens;\n\n    bool public auctionEnded;\n\n    uint256 public openingTime;\n    uint256 public closingTime;\n\n    mapping(address => uint256) public totalBidAmt;\n    mapping(address => bool) public IsBidding;\n\n    event BidStaked(address beneficiary, uint256 amount);\n\n    constructor(HuiToken _huiToken, uint256 _rate) public {\n        huiToken = _huiToken;\n        owner = msg.sender;\n        openingRate = _rate;\n        totalPotMinTokens = 0;\n    }\n\n    function startAuction() public {\n        require(msg.sender == owner);\n\n        auctionEnded = false;\n    }\n\n    function stakeBid(address _beneficiary) public payable {\n        require(_beneficiary != address(0));\n        require(msg.value > 0, \"amount cannot be 0 or less\");\n\n        weiRaised = weiRaised + msg.value;\n\n        if (IsBidding[_beneficiary] == true) {\n            totalBidAmt[_beneficiary] += msg.value;\n        } else {\n            IsBidding[_beneficiary] = true;\n            totalBidAmt[_beneficiary] = msg.value;\n        }\n\n        emit BidStaked(_beneficiary, totalBidAmt[_beneficiary]);\n    }\n\n    function claimTokens() external {\n        require(auctionEnded == true);\n        require(IsBidding[msg.sender] == true);\n\n        uint256 weiAmount = totalBidAmt[msg.sender];\n        uint256 tokensOwed = weiAmount / closingRate;\n        huiToken.transfer(msg.sender, tokensOwed);\n    }\n}\n",
  "sourcePath": "/Users/huishun/Desktop/blockchain/contracts/Auction.sol",
  "compiler": {
    "name": "solc",
    "version": "0.6.2+commit.bacdbe57.Linux.g++"
  },
  "schemaVersion": "3.2.5",
  "updatedAt": "2020-10-15T10:01:40.268Z",
  "networkType": "ethereum",
  "devdoc": {
    "methods": {}
  },
  "userdoc": {
    "methods": {}
  }
}