{
  "contractName": "Auction",
  "abi": [
    {
      "inputs": [
        {
          "internalType": "contract HuiToken",
          "name": "_huiToken",
          "type": "address"
        },
        {
          "internalType": "uint256",
          "name": "_rate",
          "type": "uint256"
        }
      ],
      "stateMutability": "nonpayable",
      "type": "constructor"
    },
    {
      "anonymous": false,
      "inputs": [
        {
          "indexed": false,
          "internalType": "address",
          "name": "beneficiary",
          "type": "address"
        },
        {
          "indexed": false,
          "internalType": "uint256",
          "name": "amount",
          "type": "uint256"
        }
      ],
      "name": "BidStaked",
      "type": "event"
    },
    {
      "inputs": [
        {
          "internalType": "address",
          "name": "",
          "type": "address"
        }
      ],
      "name": "IsBidding",
      "outputs": [
        {
          "internalType": "bool",
          "name": "",
          "type": "bool"
        }
      ],
      "stateMutability": "view",
      "type": "function"
    },
    {
      "inputs": [],
      "name": "auctionEnded",
      "outputs": [
        {
          "internalType": "bool",
          "name": "",
          "type": "bool"
        }
      ],
      "stateMutability": "view",
      "type": "function"
    },
    {
      "inputs": [],
      "name": "closingRate",
      "outputs": [
        {
          "internalType": "uint256",
          "name": "",
          "type": "uint256"
        }
      ],
      "stateMutability": "view",
      "type": "function"
    },
    {
      "inputs": [],
      "name": "closingTime",
      "outputs": [
        {
          "internalType": "uint256",
          "name": "",
          "type": "uint256"
        }
      ],
      "stateMutability": "view",
      "type": "function"
    },
    {
      "inputs": [],
      "name": "currentRate",
      "outputs": [
        {
          "internalType": "uint256",
          "name": "",
          "type": "uint256"
        }
      ],
      "stateMutability": "view",
      "type": "function"
    },
    {
      "inputs": [],
      "name": "huiToken",
      "outputs": [
        {
          "internalType": "contract HuiToken",
          "name": "",
          "type": "address"
        }
      ],
      "stateMutability": "view",
      "type": "function"
    },
    {
      "inputs": [],
      "name": "openingRate",
      "outputs": [
        {
          "internalType": "uint256",
          "name": "",
          "type": "uint256"
        }
      ],
      "stateMutability": "view",
      "type": "function"
    },
    {
      "inputs": [],
      "name": "openingTime",
      "outputs": [
        {
          "internalType": "uint256",
          "name": "",
          "type": "uint256"
        }
      ],
      "stateMutability": "view",
      "type": "function"
    },
    {
      "inputs": [],
      "name": "owner",
      "outputs": [
        {
          "internalType": "address",
          "name": "",
          "type": "address"
        }
      ],
      "stateMutability": "view",
      "type": "function"
    },
    {
      "inputs": [],
      "name": "reserveRate",
      "outputs": [
        {
          "internalType": "uint256",
          "name": "",
          "type": "uint256"
        }
      ],
      "stateMutability": "view",
      "type": "function"
    },
    {
      "inputs": [
        {
          "internalType": "address",
          "name": "",
          "type": "address"
        }
      ],
      "name": "totalBidAmt",
      "outputs": [
        {
          "internalType": "uint256",
          "name": "",
          "type": "uint256"
        }
      ],
      "stateMutability": "view",
      "type": "function"
    },
    {
      "inputs": [],
      "name": "totalPotMinTokens",
      "outputs": [
        {
          "internalType": "uint256",
          "name": "",
          "type": "uint256"
        }
      ],
      "stateMutability": "view",
      "type": "function"
    },
    {
      "inputs": [],
      "name": "weiRaised",
      "outputs": [
        {
          "internalType": "uint256",
          "name": "",
          "type": "uint256"
        }
      ],
      "stateMutability": "view",
      "type": "function"
    }
  ],
  "bytecode": "0x608060405234801561001057600080fd5b506040516105363803806105368339818101604052604081101561003357600080fd5b810190808051906020019092919080519060200190929190505050816000806101000a81548173ffffffffffffffffffffffffffffffffffffffff021916908373ffffffffffffffffffffffffffffffffffffffff16021790555033600160006101000a81548173ffffffffffffffffffffffffffffffffffffffff021916908373ffffffffffffffffffffffffffffffffffffffff1602179055508060038190555060006007819055505050610447806100ef6000396000f3fe608060405234801561001057600080fd5b50600436106100ec576000357c01000000000000000000000000000000000000000000000000000000009004806386433374116100a9578063b7a8807c11610083578063b7a8807c14610269578063f0622fe414610287578063f9a6eb43146102e3578063f9f8bdb71461032d576100ec565b806386433374146101a55780638da5cb5b146101c75780639af836ce14610211576100ec565b80630b72a289146100f157806339d658341461010f5780634042b66f1461012d5780634b6753bc1461014b57806358d7bf8014610169578063842572e614610187575b600080fd5b6100f961034b565b6040518082815260200191505060405180910390f35b610117610351565b6040518082815260200191505060405180910390f35b610135610357565b6040518082815260200191505060405180910390f35b61015361035d565b6040518082815260200191505060405180910390f35b610171610363565b6040518082815260200191505060405180910390f35b61018f610369565b6040518082815260200191505060405180910390f35b6101ad61036f565b604051808215151515815260200191505060405180910390f35b6101cf610382565b604051808273ffffffffffffffffffffffffffffffffffffffff1673ffffffffffffffffffffffffffffffffffffffff16815260200191505060405180910390f35b6102536004803603602081101561022757600080fd5b81019080803573ffffffffffffffffffffffffffffffffffffffff1690602001909291905050506103a8565b6040518082815260200191505060405180910390f35b6102716103c0565b6040518082815260200191505060405180910390f35b6102c96004803603602081101561029d57600080fd5b81019080803573ffffffffffffffffffffffffffffffffffffffff1690602001909291905050506103c6565b604051808215151515815260200191505060405180910390f35b6102eb6103e6565b604051808273ffffffffffffffffffffffffffffffffffffffff1673ffffffffffffffffffffffffffffffffffffffff16815260200191505060405180910390f35b61033561040b565b6040518082815260200191505060405180910390f35b60075481565b60065481565b60025481565b600a5481565b60055481565b60035481565b600860009054906101000a900460ff1681565b600160009054906101000a900473ffffffffffffffffffffffffffffffffffffffff1681565b600b6020528060005260406000206000915090505481565b60095481565b600c6020528060005260406000206000915054906101000a900460ff1681565b6000809054906101000a900473ffffffffffffffffffffffffffffffffffffffff1681565b6004548156fea26469706673582212206611da123402a40841cbb1b34ed3fd56ac8100439d0a7a4810d6bf05e50d22d764736f6c63430006020033",
  "source": "pragma solidity ^0.6.2;\r\n\r\nimport \"./HuiToken.sol\";\r\n\r\ncontract Auction {\r\n    HuiToken public huiToken;\r\n    address public owner;\r\n    uint256 public weiRaised;\r\n\r\n    uint256 public openingRate;\r\n    uint256 public currentRate;\r\n    uint256 public reserveRate;\r\n    uint256 public closingRate;\r\n\r\n    uint256 public totalPotMinTokens;\r\n\r\n    bool public auctionEnded;\r\n\r\n    uint256 public openingTime;\r\n    uint256 public closingTime;\r\n\r\n    mapping(address => uint) public totalBidAmt;\r\n    mapping(address => bool) public IsBidding;\r\n\r\n    event BidStaked(address beneficiary, uint256 amount);\r\n\r\n    constructor(HuiToken _huiToken, uint256 _rate) public {\r\n        huiToken = _huiToken;\r\n        owner = msg.sender;\r\n        openingRate = _rate;\r\n        totalPotMinTokens = 0;\r\n    }\r\n\r\n    // function startAuction() external {\r\n    //     require(msg.sender == owner);\r\n\r\n    //     auctionEnded = false;\r\n    // }\r\n\r\n    // function stakeBid(address _beneficiary) public payable {\r\n    //     require(_beneficiary != address(0));\r\n    //     require(msg.value > 0, \"amount cannot be 0 or less\");\r\n\r\n    //     weiRaised += msg.value;\r\n\r\n    //     if(IsBidding[_beneficiary] == true) {\r\n    //         totalBidAmt[_beneficiary] += msg.value;\r\n    //     }\r\n\r\n    //     else {\r\n    //         IsBidding[_beneficiary] = true;\r\n    //         totalBidAmt[_beneficiary] = msg.value;\r\n    //     }\r\n        \r\n    //     emit BidStaked(_beneficiary, msg.value);\r\n    // }\r\n\r\n    // function claimTokens() external {\r\n    //     require(auctionEnded == true);\r\n    //     require(IsBidding[msg.sender] == true);\r\n\r\n    //     uint weiAmount = BidStaked[msg.sender];\r\n    //     uint tokensOwed = weiAmount/closingRate;\r\n    //     huiToken.transfer(msg.sender, tokensOwed);\r\n\r\n    // }\r\n}",
  "sourcePath": "D:/repos/CZ4153-blockchain-project/contracts/Auction.sol",
  "compiler": {
    "name": "solc",
    "version": "0.6.2+commit.bacdbe57.Emscripten.clang"
  },
  "schemaVersion": "3.3.0",
  "updatedAt": "2020-10-15T04:29:47.200Z",
  "devdoc": {
    "methods": {}
  },
  "userdoc": {
    "methods": {}
  }
}