{
  "contractName": "Auction",
  "abi": [
    {
      "inputs": [
        {
          "internalType": "contract HuiToken",
          "name": "_huiToken",
          "type": "address"
        },
        {
          "internalType": "uint256",
          "name": "_rate",
          "type": "uint256"
        }
      ],
      "stateMutability": "nonpayable",
      "type": "constructor"
    },
    {
      "anonymous": false,
      "inputs": [
        {
          "indexed": false,
          "internalType": "address",
          "name": "beneficiary",
          "type": "address"
        },
        {
          "indexed": false,
          "internalType": "uint256",
          "name": "amount",
          "type": "uint256"
        }
      ],
      "name": "BidStaked",
      "type": "event"
    },
    {
      "inputs": [
        {
          "internalType": "address",
          "name": "",
          "type": "address"
        }
      ],
      "name": "IsBidding",
      "outputs": [
        {
          "internalType": "bool",
          "name": "",
          "type": "bool"
        }
      ],
      "stateMutability": "view",
      "type": "function",
      "constant": true
    },
    {
      "inputs": [],
      "name": "closingRate",
      "outputs": [
        {
          "internalType": "uint256",
          "name": "",
          "type": "uint256"
        }
      ],
      "stateMutability": "view",
      "type": "function",
      "constant": true
    },
    {
      "inputs": [],
      "name": "closingTime",
      "outputs": [
        {
          "internalType": "uint256",
          "name": "",
          "type": "uint256"
        }
      ],
      "stateMutability": "view",
      "type": "function",
      "constant": true
    },
    {
      "inputs": [],
      "name": "currentRate",
      "outputs": [
        {
          "internalType": "uint256",
          "name": "",
          "type": "uint256"
        }
      ],
      "stateMutability": "view",
      "type": "function",
      "constant": true
    },
    {
      "inputs": [],
      "name": "huiToken",
      "outputs": [
        {
          "internalType": "contract HuiToken",
          "name": "",
          "type": "address"
        }
      ],
      "stateMutability": "view",
      "type": "function",
      "constant": true
    },
    {
      "inputs": [],
      "name": "openingRate",
      "outputs": [
        {
          "internalType": "uint256",
          "name": "",
          "type": "uint256"
        }
      ],
      "stateMutability": "view",
      "type": "function",
      "constant": true
    },
    {
      "inputs": [],
      "name": "openingTime",
      "outputs": [
        {
          "internalType": "uint256",
          "name": "",
          "type": "uint256"
        }
      ],
      "stateMutability": "view",
      "type": "function",
      "constant": true
    },
    {
      "inputs": [],
      "name": "owner",
      "outputs": [
        {
          "internalType": "address",
          "name": "",
          "type": "address"
        }
      ],
      "stateMutability": "view",
      "type": "function",
      "constant": true
    },
    {
      "inputs": [],
      "name": "reserveRate",
      "outputs": [
        {
          "internalType": "uint256",
          "name": "",
          "type": "uint256"
        }
      ],
      "stateMutability": "view",
      "type": "function",
      "constant": true
    },
    {
      "inputs": [],
      "name": "stage",
      "outputs": [
        {
          "internalType": "enum Auction.Stages",
          "name": "",
          "type": "uint8"
        }
      ],
      "stateMutability": "view",
      "type": "function",
      "constant": true
    },
    {
      "inputs": [
        {
          "internalType": "address",
          "name": "",
          "type": "address"
        }
      ],
      "name": "totalBidAmt",
      "outputs": [
        {
          "internalType": "uint256",
          "name": "",
          "type": "uint256"
        }
      ],
      "stateMutability": "view",
      "type": "function",
      "constant": true
    },
    {
      "inputs": [],
      "name": "totalPotMinTokens",
      "outputs": [
        {
          "internalType": "uint256",
          "name": "",
          "type": "uint256"
        }
      ],
      "stateMutability": "view",
      "type": "function",
      "constant": true
    },
    {
      "inputs": [],
      "name": "wallet",
      "outputs": [
        {
          "internalType": "address",
          "name": "",
          "type": "address"
        }
      ],
      "stateMutability": "view",
      "type": "function",
      "constant": true
    },
    {
      "inputs": [],
      "name": "weiRaised",
      "outputs": [
        {
          "internalType": "uint256",
          "name": "",
          "type": "uint256"
        }
      ],
      "stateMutability": "view",
      "type": "function",
      "constant": true
    },
    {
      "inputs": [],
      "name": "updateStage",
      "outputs": [
        {
          "internalType": "enum Auction.Stages",
          "name": "",
          "type": "uint8"
        }
      ],
      "stateMutability": "view",
      "type": "function",
      "constant": true
    },
    {
      "inputs": [],
      "name": "updateTimeLeft",
      "outputs": [
        {
          "internalType": "uint256",
          "name": "",
          "type": "uint256"
        }
      ],
      "stateMutability": "view",
      "type": "function",
      "constant": true
    },
    {
      "inputs": [],
      "name": "updateCurrentTokenPrice",
      "outputs": [
        {
          "internalType": "uint256",
          "name": "",
          "type": "uint256"
        }
      ],
      "stateMutability": "view",
      "type": "function",
      "constant": true
    },
    {
      "inputs": [],
      "name": "updateTokensLeft",
      "outputs": [
        {
          "internalType": "uint256",
          "name": "",
          "type": "uint256"
        }
      ],
      "stateMutability": "view",
      "type": "function",
      "constant": true
    },
    {
      "inputs": [],
      "name": "randomFunciont",
      "outputs": [],
      "stateMutability": "nonpayable",
      "type": "function"
    },
    {
      "inputs": [],
      "name": "startAuction",
      "outputs": [],
      "stateMutability": "nonpayable",
      "type": "function"
    }
  ],
  "bytecode": "0x608060405234801561001057600080fd5b5060405161076d38038061076d8339818101604052604081101561003357600080fd5b810190808051906020019092919080519060200190929190505050816000806101000a81548173ffffffffffffffffffffffffffffffffffffffff021916908373ffffffffffffffffffffffffffffffffffffffff16021790555033600160006101000a81548173ffffffffffffffffffffffffffffffffffffffff021916908373ffffffffffffffffffffffffffffffffffffffff160217905550806004819055506000600881905550505061067e806100ef6000396000f3fe608060405234801561001057600080fd5b5060043610610149576000357c0100000000000000000000000000000000000000000000000000000000900480639af836ce116100ca578063cf1ac21d1161008e578063cf1ac21d14610396578063d522a6c4146103b4578063f0622fe4146103d2578063f9a6eb431461042e578063f9f8bdb71461047857610149565b80639af836ce146102be578063b7a8807c14610316578063b7c71c8614610334578063c040e6b81461033e578063c062f5781461036a57610149565b806358d7bf801161011157806358d7bf80146102105780636b64c7691461022e578063842572e6146102385780638a9d60ab146102565780638da5cb5b1461027457610149565b80630b72a2891461014e57806339d658341461016c5780634042b66f1461018a5780634b6753bc146101a8578063521eb273146101c6575b600080fd5b610156610496565b6040518082815260200191505060405180910390f35b61017461049c565b6040518082815260200191505060405180910390f35b6101926104a2565b6040518082815260200191505060405180910390f35b6101b06104a8565b6040518082815260200191505060405180910390f35b6101ce6104ae565b604051808273ffffffffffffffffffffffffffffffffffffffff1673ffffffffffffffffffffffffffffffffffffffff16815260200191505060405180910390f35b6102186104d4565b6040518082815260200191505060405180910390f35b6102366104da565b005b61024061054a565b6040518082815260200191505060405180910390f35b61025e610550565b6040518082815260200191505060405180910390f35b61027c61055a565b604051808273ffffffffffffffffffffffffffffffffffffffff1673ffffffffffffffffffffffffffffffffffffffff16815260200191505060405180910390f35b610300600480360360208110156102d457600080fd5b81019080803573ffffffffffffffffffffffffffffffffffffffff169060200190929190505050610580565b6040518082815260200191505060405180910390f35b61031e610598565b6040518082815260200191505060405180910390f35b61033c61059e565b005b6103466105bd565b6040518082600181111561035657fe5b60ff16815260200191505060405180910390f35b6103726105d0565b6040518082600181111561038257fe5b60ff16815260200191505060405180910390f35b61039e6105e7565b6040518082815260200191505060405180910390f35b6103bc6105f1565b6040518082815260200191505060405180910390f35b610414600480360360208110156103e857600080fd5b81019080803573ffffffffffffffffffffffffffffffffffffffff1690602001909291905050506105fd565b604051808215151515815260200191505060405180910390f35b61043661061d565b604051808273ffffffffffffffffffffffffffffffffffffffff1673ffffffffffffffffffffffffffffffffffffffff16815260200191505060405180910390f35b610480610642565b6040518082815260200191505060405180910390f35b60085481565b60075481565b60035481565b600a5481565b600260009054906101000a900473ffffffffffffffffffffffffffffffffffffffff1681565b60065481565b600160009054906101000a900473ffffffffffffffffffffffffffffffffffffffff1673ffffffffffffffffffffffffffffffffffffffff163373ffffffffffffffffffffffffffffffffffffffff161461053457600080fd5b426009819055506104b060095401600a81905550565b60045481565b6000600854905090565b600160009054906101000a900473ffffffffffffffffffffffffffffffffffffffff1681565b600c6020528060005260406000206000915090505481565b60095481565b60095442101580156105b25750600a544211155b6105bb57600080fd5b565b600b60009054906101000a900460ff1681565b6000600b60009054906101000a900460ff16905090565b6000600554905090565b600042600a5403905090565b600d6020528060005260406000206000915054906101000a900460ff1681565b6000809054906101000a900473ffffffffffffffffffffffffffffffffffffffff1681565b6005548156fea26469706673582212200bd21b6a1525de92ceb1806fe7a1eab274948825f9f835fe0d5d28aa49af8ad164736f6c63430006020033",
  "source": "pragma solidity ^0.6.2;\n\nimport \"./HuiToken.sol\";\n\ncontract Auction {\n    //hello\n    HuiToken public huiToken;\n    address public owner;\n    address public wallet;\n    uint256 public weiRaised;\n\n    uint256 public openingRate;\n    uint256 public currentRate;\n    uint256 public reserveRate;\n    uint256 public closingRate;\n\n    uint256 public totalPotMinTokens;\n\n    uint256 public openingTime;\n    uint256 public closingTime;\n\n    Stages public stage;\n\n    enum Stages {\n        AuctionStarted,\n        AuctionEnded\n    }\n\n    modifier onlyWhileOpen {\n        require(block.timestamp >= openingTime && block.timestamp <= closingTime);\n        _;\n    }\n\n    modifier atStage(Stages _stage) {\n        if (stage != _stage)\n            // Contract not in expected state\n            revert();\n        _;\n    }\n\n    modifier isOwner() {\n        if (msg.sender != owner)\n            // Only owner is allowed to proceed\n            revert();\n        _;\n    }\n\n    modifier isWallet() {\n        if (msg.sender != wallet)\n            // Only wallet is allowed to proceed\n            revert();\n        _;\n    }\n\n    mapping(address => uint) public totalBidAmt;\n    mapping(address => bool) public IsBidding;\n\n    event BidStaked(address beneficiary, uint256 amount);\n\n    constructor(HuiToken _huiToken, uint256 _rate) public {\n        huiToken = _huiToken;\n        owner = msg.sender;\n        openingRate = _rate;\n        totalPotMinTokens = 0;\n        // TODO - ADD RESERVE RATE\n    }\n\n    function updateStage() public view returns (Stages) {\n        return stage;\n    }\n    function updateTimeLeft() public view returns (uint256) {\n        return closingTime - now;\n    }\n    function updateCurrentTokenPrice() public view returns (uint256) {\n        return currentRate;\n    }\n    function updateTokensLeft() public view returns (uint256) {\n        return totalPotMinTokens;\n    }\n\n    function randomFunciont () public onlyWhileOpen {\n\n    }\n\n    function startAuction() external isOwner {\n        openingTime = now;\n        closingTime = openingTime + 20 minutes;\n    }\n\n    // function stakeBid(address _beneficiary) public payable {\n    //     require(_beneficiary != address(0));\n    //     require(msg.value > 0, \"amount cannot be 0 or less\");\n\n    //     weiRaised += msg.value;\n\n    //     if(IsBidding[_beneficiary] == true) {\n    //         totalBidAmt[_beneficiary] += msg.value;\n    //     }\n\n    //     else {\n    //         IsBidding[_beneficiary] = true;\n    //         totalBidAmt[_beneficiary] = msg.value;\n    //     }\n        \n    //     emit BidStaked(_beneficiary, msg.value);\n    // }\n\n    // function claimTokens() external {\n    //     require(auctionEnded == true);\n    //     require(IsBidding[msg.sender] == true);\n\n    //     uint weiAmount = BidStaked[msg.sender];\n    //     uint tokensOwed = weiAmount/closingRate;\n    //     huiToken.transfer(msg.sender, tokensOwed);\n\n    // }\n}\n",
  "sourcePath": "/Users/huishun/Desktop/blockchain/contracts/Auction.sol",
  "compiler": {
    "name": "solc",
    "version": "0.6.2+commit.bacdbe57.Emscripten.clang"
  },
  "schemaVersion": "3.2.5",
  "updatedAt": "2020-10-16T13:48:23.977Z",
  "networkType": "ethereum",
  "devdoc": {
    "methods": {}
  },
  "userdoc": {
    "methods": {}
  }
}