{
  "contractName": "Bank",
  "abi": [
    {
      "inputs": [],
      "stateMutability": "nonpayable",
      "type": "constructor"
    },
    {
      "anonymous": false,
      "inputs": [
        {
          "indexed": false,
          "internalType": "address",
          "name": "accountAddress",
          "type": "address"
        },
        {
          "indexed": false,
          "internalType": "uint256",
          "name": "amount",
          "type": "uint256"
        }
      ],
      "name": "LogDepositMade",
      "type": "event"
    },
    {
      "inputs": [],
      "name": "owner",
      "outputs": [
        {
          "internalType": "address",
          "name": "",
          "type": "address"
        }
      ],
      "stateMutability": "view",
      "type": "function",
      "constant": true
    },
    {
      "inputs": [],
      "name": "deposit",
      "outputs": [
        {
          "internalType": "uint256",
          "name": "",
          "type": "uint256"
        }
      ],
      "stateMutability": "payable",
      "type": "function",
      "payable": true
    },
    {
      "inputs": [
        {
          "internalType": "uint256",
          "name": "withdrawAmount",
          "type": "uint256"
        }
      ],
      "name": "withdraw",
      "outputs": [
        {
          "internalType": "uint256",
          "name": "remainingBal",
          "type": "uint256"
        }
      ],
      "stateMutability": "nonpayable",
      "type": "function"
    },
    {
      "inputs": [],
      "name": "balance",
      "outputs": [
        {
          "internalType": "uint256",
          "name": "",
          "type": "uint256"
        }
      ],
      "stateMutability": "view",
      "type": "function",
      "constant": true
    }
  ],
  "bytecode": "0x608060405234801561001057600080fd5b5033600160006101000a81548173ffffffffffffffffffffffffffffffffffffffff021916908373ffffffffffffffffffffffffffffffffffffffff1602179055506104a0806100616000396000f3fe60806040526004361061005c576000357c0100000000000000000000000000000000000000000000000000000000900480632e1a7d4d146100615780638da5cb5b146100b0578063b69ef8a814610107578063d0e30db014610132575b600080fd5b34801561006d57600080fd5b5061009a6004803603602081101561008457600080fd5b8101908080359060200190929190505050610150565b6040518082815260200191505060405180910390f35b3480156100bc57600080fd5b506100c5610276565b604051808273ffffffffffffffffffffffffffffffffffffffff1673ffffffffffffffffffffffffffffffffffffffff16815260200191505060405180910390f35b34801561011357600080fd5b5061011c61029c565b6040518082815260200191505060405180910390f35b61013a6102e2565b6040518082815260200191505060405180910390f35b60008060003373ffffffffffffffffffffffffffffffffffffffff1673ffffffffffffffffffffffffffffffffffffffff1681526020019081526020016000205482111561019d57600080fd5b816000803373ffffffffffffffffffffffffffffffffffffffff1673ffffffffffffffffffffffffffffffffffffffff168152602001908152602001600020600082825403925050819055503373ffffffffffffffffffffffffffffffffffffffff166108fc839081150290604051600060405180830381858888f1935050505015801561022f573d6000803e3d6000fd5b506000803373ffffffffffffffffffffffffffffffffffffffff1673ffffffffffffffffffffffffffffffffffffffff168152602001908152602001600020549050919050565b600160009054906101000a900473ffffffffffffffffffffffffffffffffffffffff1681565b60008060003373ffffffffffffffffffffffffffffffffffffffff1673ffffffffffffffffffffffffffffffffffffffff16815260200190815260200160002054905090565b60008060003373ffffffffffffffffffffffffffffffffffffffff1673ffffffffffffffffffffffffffffffffffffffff16815260200190815260200160002054346000803373ffffffffffffffffffffffffffffffffffffffff1673ffffffffffffffffffffffffffffffffffffffff1681526020019081526020016000205401101561036f57600080fd5b346000803373ffffffffffffffffffffffffffffffffffffffff1673ffffffffffffffffffffffffffffffffffffffff168152602001908152602001600020600082825401925050819055507fa8126f7572bb1fdeae5b5aa9ec126438b91f658a07873f009d041ae690f3a1933334604051808373ffffffffffffffffffffffffffffffffffffffff1673ffffffffffffffffffffffffffffffffffffffff1681526020018281526020019250505060405180910390a16000803373ffffffffffffffffffffffffffffffffffffffff1673ffffffffffffffffffffffffffffffffffffffff1681526020019081526020016000205490509056fea2646970667358221220b94df21974d3283ec3171e801a3ba9a9d77991dcf5174bd08ad6ae59a4084dcb64736f6c63430006020033",
  "source": "pragma solidity ^0.6.2;\r\n\r\ncontract Bank {\r\n    mapping (address => uint) private balances;\r\n    address public owner;\r\n    event LogDepositMade(address accountAddress, uint amount);\r\n\r\n    constructor () public {\r\n        owner = msg.sender;\r\n    }\r\n\r\n    function deposit() public payable returns (uint) {\r\n        require((balances[msg.sender] + msg.value) >= balances[msg.sender]);\r\n\r\n        balances[msg.sender] += msg.value;\r\n\r\n        emit LogDepositMade(msg.sender, msg.value); // emit an event\r\n\r\n        return balances[msg.sender];\r\n    }\r\n\r\n    function withdraw(uint withdrawAmount) public returns (uint remainingBal) {\r\n        require(withdrawAmount <= balances[msg.sender]);\r\n\r\n        balances[msg.sender] -= withdrawAmount;\r\n\r\n        msg.sender.transfer(withdrawAmount);\r\n\r\n        return balances[msg.sender];\r\n    }\r\n\r\n    function balance() view public returns (uint) {\r\n        return balances[msg.sender];\r\n    }\r\n}",
  "sourcePath": "D:/repos/CZ4153-blockchain-project/contracts/Bank.sol",
  "compiler": {
    "name": "solc",
    "version": "0.6.2+commit.bacdbe57.Emscripten.clang"
  },
  "schemaVersion": "3.3.0",
  "updatedAt": "2020-10-15T04:33:32.506Z",
  "networkType": "ethereum",
  "devdoc": {
    "methods": {}
  },
  "userdoc": {
    "methods": {}
  }
}