{
  "contractName": "DutchAuction",
  "abi": [
    {
      "inputs": [
        {
          "internalType": "address payable",
          "name": "_wallet",
          "type": "address"
        },
        {
          "internalType": "uint256",
          "name": "_ceiling",
          "type": "uint256"
        },
        {
          "internalType": "uint256",
          "name": "_priceFactor",
          "type": "uint256"
        }
      ],
      "payable": false,
      "stateMutability": "nonpayable",
      "type": "constructor"
    },
    {
      "anonymous": false,
      "inputs": [
        {
          "indexed": true,
          "internalType": "address",
          "name": "sender",
          "type": "address"
        },
        {
          "indexed": false,
          "internalType": "uint256",
          "name": "amount",
          "type": "uint256"
        }
      ],
      "name": "BidSubmission",
      "type": "event"
    },
    {
      "constant": true,
      "inputs": [],
      "name": "MAX_TOKENS_SOLD",
      "outputs": [
        {
          "internalType": "uint256",
          "name": "",
          "type": "uint256"
        }
      ],
      "payable": false,
      "stateMutability": "view",
      "type": "function"
    },
    {
      "constant": true,
      "inputs": [],
      "name": "WAITING_PERIOD",
      "outputs": [
        {
          "internalType": "uint256",
          "name": "",
          "type": "uint256"
        }
      ],
      "payable": false,
      "stateMutability": "view",
      "type": "function"
    },
    {
      "constant": true,
      "inputs": [
        {
          "internalType": "address",
          "name": "",
          "type": "address"
        }
      ],
      "name": "bids",
      "outputs": [
        {
          "internalType": "uint256",
          "name": "",
          "type": "uint256"
        }
      ],
      "payable": false,
      "stateMutability": "view",
      "type": "function"
    },
    {
      "constant": true,
      "inputs": [],
      "name": "ceiling",
      "outputs": [
        {
          "internalType": "uint256",
          "name": "",
          "type": "uint256"
        }
      ],
      "payable": false,
      "stateMutability": "view",
      "type": "function"
    },
    {
      "constant": true,
      "inputs": [],
      "name": "endTime",
      "outputs": [
        {
          "internalType": "uint256",
          "name": "",
          "type": "uint256"
        }
      ],
      "payable": false,
      "stateMutability": "view",
      "type": "function"
    },
    {
      "constant": true,
      "inputs": [],
      "name": "finalPrice",
      "outputs": [
        {
          "internalType": "uint256",
          "name": "",
          "type": "uint256"
        }
      ],
      "payable": false,
      "stateMutability": "view",
      "type": "function"
    },
    {
      "constant": true,
      "inputs": [],
      "name": "gnosisToken",
      "outputs": [
        {
          "internalType": "contract Token",
          "name": "",
          "type": "address"
        }
      ],
      "payable": false,
      "stateMutability": "view",
      "type": "function"
    },
    {
      "constant": true,
      "inputs": [],
      "name": "owner",
      "outputs": [
        {
          "internalType": "address",
          "name": "",
          "type": "address"
        }
      ],
      "payable": false,
      "stateMutability": "view",
      "type": "function"
    },
    {
      "constant": true,
      "inputs": [],
      "name": "priceFactor",
      "outputs": [
        {
          "internalType": "uint256",
          "name": "",
          "type": "uint256"
        }
      ],
      "payable": false,
      "stateMutability": "view",
      "type": "function"
    },
    {
      "constant": true,
      "inputs": [],
      "name": "stage",
      "outputs": [
        {
          "internalType": "enum DutchAuction.Stages",
          "name": "",
          "type": "uint8"
        }
      ],
      "payable": false,
      "stateMutability": "view",
      "type": "function"
    },
    {
      "constant": true,
      "inputs": [],
      "name": "startBlock",
      "outputs": [
        {
          "internalType": "uint256",
          "name": "",
          "type": "uint256"
        }
      ],
      "payable": false,
      "stateMutability": "view",
      "type": "function"
    },
    {
      "constant": true,
      "inputs": [],
      "name": "totalReceived",
      "outputs": [
        {
          "internalType": "uint256",
          "name": "",
          "type": "uint256"
        }
      ],
      "payable": false,
      "stateMutability": "view",
      "type": "function"
    },
    {
      "constant": true,
      "inputs": [],
      "name": "wallet",
      "outputs": [
        {
          "internalType": "address payable",
          "name": "",
          "type": "address"
        }
      ],
      "payable": false,
      "stateMutability": "view",
      "type": "function"
    },
    {
      "constant": false,
      "inputs": [
        {
          "internalType": "address",
          "name": "_gnosisToken",
          "type": "address"
        }
      ],
      "name": "setup",
      "outputs": [],
      "payable": false,
      "stateMutability": "nonpayable",
      "type": "function"
    },
    {
      "constant": false,
      "inputs": [],
      "name": "startAuction",
      "outputs": [],
      "payable": false,
      "stateMutability": "nonpayable",
      "type": "function"
    },
    {
      "constant": false,
      "inputs": [
        {
          "internalType": "uint256",
          "name": "_ceiling",
          "type": "uint256"
        },
        {
          "internalType": "uint256",
          "name": "_priceFactor",
          "type": "uint256"
        }
      ],
      "name": "changeSettings",
      "outputs": [],
      "payable": false,
      "stateMutability": "nonpayable",
      "type": "function"
    },
    {
      "constant": false,
      "inputs": [],
      "name": "calcCurrentTokenPrice",
      "outputs": [
        {
          "internalType": "uint256",
          "name": "",
          "type": "uint256"
        }
      ],
      "payable": false,
      "stateMutability": "nonpayable",
      "type": "function"
    },
    {
      "constant": false,
      "inputs": [],
      "name": "updateStage",
      "outputs": [
        {
          "internalType": "enum DutchAuction.Stages",
          "name": "",
          "type": "uint8"
        }
      ],
      "payable": false,
      "stateMutability": "nonpayable",
      "type": "function"
    },
    {
      "constant": false,
      "inputs": [
        {
          "internalType": "address payable",
          "name": "receiver",
          "type": "address"
        }
      ],
      "name": "bid",
      "outputs": [
        {
          "internalType": "uint256",
          "name": "amount",
          "type": "uint256"
        }
      ],
      "payable": true,
      "stateMutability": "payable",
      "type": "function"
    },
    {
      "constant": false,
      "inputs": [
        {
          "internalType": "address",
          "name": "receiver",
          "type": "address"
        }
      ],
      "name": "claimTokens",
      "outputs": [],
      "payable": false,
      "stateMutability": "nonpayable",
      "type": "function"
    },
    {
      "constant": true,
      "inputs": [],
      "name": "calcStopPrice",
      "outputs": [
        {
          "internalType": "uint256",
          "name": "",
          "type": "uint256"
        }
      ],
      "payable": false,
      "stateMutability": "view",
      "type": "function"
    },
    {
      "constant": true,
      "inputs": [],
      "name": "calcTokenPrice",
      "outputs": [
        {
          "internalType": "uint256",
          "name": "",
          "type": "uint256"
        }
      ],
      "payable": false,
      "stateMutability": "view",
      "type": "function"
    }
  ],
  "bytecode": "0x608060405234801561001057600080fd5b506040516115eb3803806115eb8339818101604052606081101561003357600080fd5b81019080805190602001909291908051906020019092919080519060200190929190505050600073ffffffffffffffffffffffffffffffffffffffff168373ffffffffffffffffffffffffffffffffffffffff1614806100935750600082145b8061009e5750600081145b156100a857600080fd5b33600260006101000a81548173ffffffffffffffffffffffffffffffffffffffff021916908373ffffffffffffffffffffffffffffffffffffffff16021790555082600160006101000a81548173ffffffffffffffffffffffffffffffffffffffff021916908373ffffffffffffffffffffffffffffffffffffffff16021790555081600381905550806004819055506000600a60006101000a81548160ff0219169083600481111561015757fe5b021790555050505061147d8061016e6000396000f3fe6080604052600436106101355760003560e01c8063753ed1bd116100ab578063c040e6b81161006f578063c040e6b814610501578063c062f5781461053a578063d9f8a4e214610573578063dd9dd6881461059e578063df8de3e7146105c9578063dfb2866d1461061a57610135565b8063753ed1bd146103d15780638da5cb5b146103fc5780639cf5453d14610453578063a3c2c462146104ab578063a6b513ee146104d657610135565b8063521eb273116100fd578063521eb2731461022b57806360fd902c1461028257806362ea82db146102d957806366d382031461033e5780636b64c7691461038f5780636f85c7e4146103a657610135565b806317f5de951461013a5780633197cbb61461016557806336d02c941461019057806339f64b52146101d557806348cd4cb114610200575b600080fd5b34801561014657600080fd5b5061014f610645565b6040518082815260200191505060405180910390f35b34801561017157600080fd5b5061017a610654565b6040518082815260200191505060405180910390f35b34801561019c57600080fd5b506101d3600480360360408110156101b357600080fd5b81019080803590602001909291908035906020019092919050505061065a565b005b3480156101e157600080fd5b506101ea6106fa565b6040518082815260200191505060405180910390f35b34801561020c57600080fd5b50610215610722565b6040518082815260200191505060405180910390f35b34801561023757600080fd5b50610240610728565b604051808273ffffffffffffffffffffffffffffffffffffffff1673ffffffffffffffffffffffffffffffffffffffff16815260200191505060405180910390f35b34801561028e57600080fd5b5061029761074e565b604051808273ffffffffffffffffffffffffffffffffffffffff1673ffffffffffffffffffffffffffffffffffffffff16815260200191505060405180910390f35b3480156102e557600080fd5b50610328600480360360208110156102fc57600080fd5b81019080803573ffffffffffffffffffffffffffffffffffffffff169060200190929190505050610773565b6040518082815260200191505060405180910390f35b34801561034a57600080fd5b5061038d6004803603602081101561036157600080fd5b81019080803573ffffffffffffffffffffffffffffffffffffffff16906020019092919050505061078b565b005b34801561039b57600080fd5b506103a46109ab565b005b3480156103b257600080fd5b506103bb610a66565b6040518082815260200191505060405180910390f35b3480156103dd57600080fd5b506103e6610a6d565b6040518082815260200191505060405180910390f35b34801561040857600080fd5b50610411610a73565b604051808273ffffffffffffffffffffffffffffffffffffffff1673ffffffffffffffffffffffffffffffffffffffff16815260200191505060405180910390f35b6104956004803603602081101561046957600080fd5b81019080803573ffffffffffffffffffffffffffffffffffffffff169060200190929190505050610a99565b6040518082815260200191505060405180910390f35b3480156104b757600080fd5b506104c0610da6565b6040518082815260200191505060405180910390f35b3480156104e257600080fd5b506104eb610dac565b6040518082815260200191505060405180910390f35b34801561050d57600080fd5b50610516610db2565b6040518082600481111561052657fe5b60ff16815260200191505060405180910390f35b34801561054657600080fd5b5061054f610dc5565b6040518082600481111561055f57fe5b60ff16815260200191505060405180910390f35b34801561057f57600080fd5b50610588610e92565b6040518082815260200191505060405180910390f35b3480156105aa57600080fd5b506105b3610fbf565b6040518082815260200191505060405180910390f35b3480156105d557600080fd5b50610618600480360360208110156105ec57600080fd5b81019080803573ffffffffffffffffffffffffffffffffffffffff169060200190929190505050610fea565b005b34801561062657600080fd5b5061062f6112b7565b6040518082815260200191505060405180910390f35b6a0771d2fa45345aa900000081565b60065481565b600160009054906101000a900473ffffffffffffffffffffffffffffffffffffffff1673ffffffffffffffffffffffffffffffffffffffff163373ffffffffffffffffffffffffffffffffffffffff16146106b457600080fd5b60018060048111156106c257fe5b600a60009054906101000a900460ff1660048111156106dd57fe5b146106e757600080fd5b8260038190555081600481905550505050565b60006001611d4c600554430301670de0b6b3a7640000600454028161071b57fe5b0401905090565b60055481565b600160009054906101000a900473ffffffffffffffffffffffffffffffffffffffff1681565b6000809054906101000a900473ffffffffffffffffffffffffffffffffffffffff1681565b60096020528060005260406000206000915090505481565b600260009054906101000a900473ffffffffffffffffffffffffffffffffffffffff1673ffffffffffffffffffffffffffffffffffffffff163373ffffffffffffffffffffffffffffffffffffffff16146107e557600080fd5b60008060048111156107f357fe5b600a60009054906101000a900460ff16600481111561080e57fe5b1461081857600080fd5b600073ffffffffffffffffffffffffffffffffffffffff168273ffffffffffffffffffffffffffffffffffffffff16141561085257600080fd5b816000806101000a81548173ffffffffffffffffffffffffffffffffffffffff021916908373ffffffffffffffffffffffffffffffffffffffff1602179055506a0771d2fa45345aa90000006000809054906101000a900473ffffffffffffffffffffffffffffffffffffffff1673ffffffffffffffffffffffffffffffffffffffff166370a08231306040518263ffffffff1660e01b8152600401808273ffffffffffffffffffffffffffffffffffffffff1673ffffffffffffffffffffffffffffffffffffffff168152602001915050602060405180830381600087803b15801561093e57600080fd5b505af1158015610952573d6000803e3d6000fd5b505050506040513d602081101561096857600080fd5b81019080805190602001909291905050501461098357600080fd5b6001600a60006101000a81548160ff021916908360048111156109a257fe5b02179055505050565b600160009054906101000a900473ffffffffffffffffffffffffffffffffffffffff1673ffffffffffffffffffffffffffffffffffffffff163373ffffffffffffffffffffffffffffffffffffffff1614610a0557600080fd5b6001806004811115610a1357fe5b600a60009054906101000a900460ff166004811115610a2e57fe5b14610a3857600080fd5b6002600a60006101000a81548160ff02191690836004811115610a5757fe5b02179055504360058190555050565b62093a8081565b60035481565b600260009054906101000a900473ffffffffffffffffffffffffffffffffffffffff1681565b60006004600036905014158015610ab557506024600036905014155b15610abf57600080fd5b60026004811115610acc57fe5b600a60009054906101000a900460ff166004811115610ae757fe5b148015610b025750610af7610fbf565b610aff6106fa565b11155b15610b1057610b0f6112bd565b5b60036004811115610b1d57fe5b600a60009054906101000a900460ff166004811115610b3857fe5b148015610b4b575062093a806006540142115b15610b75576004600a60006101000a81548160ff02191690836004811115610b6f57fe5b02179055505b6002806004811115610b8357fe5b600a60009054906101000a900460ff166004811115610b9e57fe5b14610ba857600080fd5b600073ffffffffffffffffffffffffffffffffffffffff168373ffffffffffffffffffffffffffffffffffffffff161415610be1573392505b3491506000600754610bf16106fa565b670de0b6b3a76400006a0771d2fa45345aa900000081610c0d57fe5b0402039050600060075460035403905081811015610c29578091505b81841115610c75578193508473ffffffffffffffffffffffffffffffffffffffff166108fc8534039081150290604051600060405180830381858888f19350505050610c7457600080fd5b5b6000841480610cd85750600160009054906101000a900473ffffffffffffffffffffffffffffffffffffffff1673ffffffffffffffffffffffffffffffffffffffff166108fc859081150290604051600060405180830381858888f19350505050155b15610ce257600080fd5b83600960008773ffffffffffffffffffffffffffffffffffffffff1673ffffffffffffffffffffffffffffffffffffffff168152602001908152602001600020600082825401925050819055508360076000828254019250508190555083821415610d5057610d4f6112bd565b5b8473ffffffffffffffffffffffffffffffffffffffff167f9c89e828e6cee6374b68147c9e753e41746aad98ba255a527a4fc0ac1868bff9856040518082815260200191505060405180910390a2505050919050565b60075481565b60085481565b600a60009054906101000a900460ff1681565b600060026004811115610dd457fe5b600a60009054906101000a900460ff166004811115610def57fe5b148015610e0a5750610dff610fbf565b610e076106fa565b11155b15610e1857610e176112bd565b5b60036004811115610e2557fe5b600a60009054906101000a900460ff166004811115610e4057fe5b148015610e53575062093a806006540142115b15610e7d576004600a60006101000a81548160ff02191690836004811115610e7757fe5b02179055505b600a60009054906101000a900460ff16905090565b600060026004811115610ea157fe5b600a60009054906101000a900460ff166004811115610ebc57fe5b148015610ed75750610ecc610fbf565b610ed46106fa565b11155b15610ee557610ee46112bd565b5b60036004811115610ef257fe5b600a60009054906101000a900460ff166004811115610f0d57fe5b148015610f20575062093a806006540142115b15610f4a576004600a60006101000a81548160ff02191690836004811115610f4457fe5b02179055505b60036004811115610f5757fe5b600a60009054906101000a900460ff166004811115610f7257fe5b1480610fa25750600480811115610f8557fe5b600a60009054906101000a900460ff166004811115610fa057fe5b145b15610fb1576008549050610fbc565b610fb96106fa565b90505b90565b600060016a0771d2fa45345aa9000000670de0b6b3a76400006007540281610fe357fe5b0401905090565b600460003690501415801561100457506024600036905014155b1561100e57600080fd5b6002600481111561101b57fe5b600a60009054906101000a900460ff16600481111561103657fe5b1480156110515750611046610fbf565b61104e6106fa565b11155b1561105f5761105e6112bd565b5b6003600481111561106c57fe5b600a60009054906101000a900460ff16600481111561108757fe5b14801561109a575062093a806006540142115b156110c4576004600a60006101000a81548160ff021916908360048111156110be57fe5b02179055505b60048060048111156110d257fe5b600a60009054906101000a900460ff1660048111156110ed57fe5b146110f757600080fd5b600073ffffffffffffffffffffffffffffffffffffffff168273ffffffffffffffffffffffffffffffffffffffff161415611130573391505b6000600854670de0b6b3a7640000600960008673ffffffffffffffffffffffffffffffffffffffff1673ffffffffffffffffffffffffffffffffffffffff16815260200190815260200160002054028161118657fe5b0490506000600960008573ffffffffffffffffffffffffffffffffffffffff1673ffffffffffffffffffffffffffffffffffffffff168152602001908152602001600020819055506000809054906101000a900473ffffffffffffffffffffffffffffffffffffffff1673ffffffffffffffffffffffffffffffffffffffff1663a9059cbb84836040518363ffffffff1660e01b8152600401808373ffffffffffffffffffffffffffffffffffffffff1673ffffffffffffffffffffffffffffffffffffffff16815260200182815260200192505050602060405180830381600087803b15801561127657600080fd5b505af115801561128a573d6000803e3d6000fd5b505050506040513d60208110156112a057600080fd5b810190808051906020019092919050505050505050565b60045481565b6003600a60006101000a81548160ff021916908360048111156112dc57fe5b02179055506003546007541415611300576112f56106fa565b60088190555061130f565b611308610fbf565b6008819055505b6000600854670de0b6b3a7640000600754028161132857fe5b0490506000809054906101000a900473ffffffffffffffffffffffffffffffffffffffff1673ffffffffffffffffffffffffffffffffffffffff1663a9059cbb600160009054906101000a900473ffffffffffffffffffffffffffffffffffffffff16836a0771d2fa45345aa9000000036040518363ffffffff1660e01b8152600401808373ffffffffffffffffffffffffffffffffffffffff1673ffffffffffffffffffffffffffffffffffffffff16815260200182815260200192505050602060405180830381600087803b15801561140257600080fd5b505af1158015611416573d6000803e3d6000fd5b505050506040513d602081101561142c57600080fd5b810190808051906020019092919050505050426006819055505056fea265627a7a72315820ae8df199fc3ce57a73fc558ac78b3345117843159cb0a41ab00350233b701a3864736f6c63430005100032",
  "source": "pragma solidity ^0.5.16;\nimport \"./Tokens/AbstractToken.sol\";\n\n\n/// @title Dutch auction contract - distribution of Gnosis tokens using an auction.\n/// @author Stefan George - <stefan.george@consensys.net>\ncontract DutchAuction {\n\n    /*\n     *  Events\n     */\n    event BidSubmission(address indexed sender, uint256 amount);\n\n    /*\n     *  Constants\n     */\n    uint constant public MAX_TOKENS_SOLD = 9000000 * 10**18; // 9M\n    uint constant public WAITING_PERIOD = 7 days;\n\n    /*\n     *  Storage\n     */\n    Token public gnosisToken;\n    address payable public wallet;\n    address public owner;\n    uint public ceiling;\n    uint public priceFactor;\n    uint public startBlock;\n    uint public endTime;\n    uint public totalReceived;\n    uint public finalPrice;\n    mapping (address => uint) public bids;\n    Stages public stage;\n\n    /*\n     *  Enums\n     */\n    enum Stages {\n        AuctionDeployed,\n        AuctionSetUp,\n        AuctionStarted,\n        AuctionEnded,\n        TradingStarted\n    }\n\n    /*\n     *  Modifiers\n     */\n    modifier atStage(Stages _stage) {\n        if (stage != _stage)\n            // Contract not in expected state\n            revert();\n        _;\n    }\n\n    modifier isOwner() {\n        if (msg.sender != owner)\n            // Only owner is allowed to proceed\n            revert();\n        _;\n    }\n\n    modifier isWallet() {\n        if (msg.sender != wallet)\n            // Only wallet is allowed to proceed\n            revert();\n        _;\n    }\n\n    modifier isValidPayload() {\n        if (msg.data.length != 4 && msg.data.length != 36)\n            revert();\n        _;\n    }\n\n    modifier timedTransitions() {\n        if (stage == Stages.AuctionStarted && calcTokenPrice() <= calcStopPrice())\n            finalizeAuction();\n        if (stage == Stages.AuctionEnded && now > endTime + WAITING_PERIOD)\n            stage = Stages.TradingStarted;\n        _;\n    }\n\n    /*\n     *  Public functions\n     */\n    /// @dev Contract constructor function sets owner.\n    /// @param _wallet Gnosis wallet.\n    /// @param _ceiling Auction ceiling.\n    /// @param _priceFactor Auction price factor.\n    constructor(address payable _wallet, uint _ceiling, uint _priceFactor)\n        public\n    {\n        if (_wallet == address(0) || _ceiling == 0 || _priceFactor == 0)\n            // Arguments are null.\n            revert();\n        owner = msg.sender;\n        wallet = _wallet;\n        ceiling = _ceiling;\n        priceFactor = _priceFactor;\n        stage = Stages.AuctionDeployed;\n    }\n\n    /// @dev Setup function sets external contracts' addresses.\n    /// @param _gnosisToken Gnosis token address.\n    function setup(address _gnosisToken)\n        public\n        isOwner\n        atStage(Stages.AuctionDeployed)\n    {\n        if (_gnosisToken == address(0))\n            // Argument is null.\n            revert();\n        gnosisToken = Token(_gnosisToken);\n        // Validate token balance\n        if (gnosisToken.balanceOf(address(this)) != MAX_TOKENS_SOLD)\n            revert();\n        stage = Stages.AuctionSetUp;\n    }\n\n    /// @dev Starts auction and sets startBlock.\n    function startAuction()\n        public\n        isWallet\n        atStage(Stages.AuctionSetUp)\n    {\n        stage = Stages.AuctionStarted;\n        startBlock = block.number;\n    }\n\n    /// @dev Changes auction ceiling and start price factor before auction is started.\n    /// @param _ceiling Updated auction ceiling.\n    /// @param _priceFactor Updated start price factor.\n    function changeSettings(uint _ceiling, uint _priceFactor)\n        public\n        isWallet\n        atStage(Stages.AuctionSetUp)\n    {\n        ceiling = _ceiling;\n        priceFactor = _priceFactor;\n    }\n\n    /// @dev Calculates current token price.\n    /// @return Returns token price.\n    function calcCurrentTokenPrice()\n        public\n        timedTransitions\n        returns (uint)\n    {\n        if (stage == Stages.AuctionEnded || stage == Stages.TradingStarted)\n            return finalPrice;\n        return calcTokenPrice();\n    }\n\n    /// @dev Returns correct stage, even if a function with timedTransitions modifier has not yet been called yet.\n    /// @return Returns current auction stage.\n    function updateStage()\n        public\n        timedTransitions\n        returns (Stages)\n    {\n        return stage;\n    }\n\n    /// @dev Allows to send a bid to the auction.\n    /// @param receiver Bid will be assigned to this address if set.\n    function bid(address payable receiver)\n        public\n        payable\n        isValidPayload\n        timedTransitions\n        atStage(Stages.AuctionStarted)\n        returns (uint amount)\n    {\n        // If a bid is done on behalf of a user via ShapeShift, the receiver address is set.\n        if (receiver == address(0))\n            receiver = msg.sender;\n        amount = msg.value;\n        // Prevent that more than 90% of tokens are sold. Only relevant if cap not reached.\n        uint maxWei = (MAX_TOKENS_SOLD / 10**18) * calcTokenPrice() - totalReceived;\n        uint maxWeiBasedOnTotalReceived = ceiling - totalReceived;\n        if (maxWeiBasedOnTotalReceived < maxWei)\n            maxWei = maxWeiBasedOnTotalReceived;\n        // Only invest maximum possible amount.\n        if (amount > maxWei) {\n            amount = maxWei;\n            // Send change back to receiver address. In case of a ShapeShift bid the user receives the change back directly.\n            if (!receiver.send(msg.value - amount))\n                // Sending failed\n                revert();\n        }\n        // Forward funding to ether wallet\n        if (amount == 0 || !wallet.send(amount))\n            // No amount sent or sending failed\n            revert();\n        bids[receiver] += amount;\n        totalReceived += amount;\n        if (maxWei == amount)\n            // When maxWei is equal to the big amount the auction is ended and finalizeAuction is triggered.\n            finalizeAuction();\n        emit BidSubmission(receiver, amount);\n    }\n\n    /// @dev Claims tokens for bidder after auction.\n    /// @param receiver Tokens will be assigned to this address if set.\n    function claimTokens(address receiver)\n        public\n        isValidPayload\n        timedTransitions\n        atStage(Stages.TradingStarted)\n    {\n        if (receiver == address(0))\n            receiver = msg.sender;\n        uint tokenCount = bids[receiver] * 10**18 / finalPrice;\n        bids[receiver] = 0;\n        gnosisToken.transfer(receiver, tokenCount);\n    }\n\n    /// @dev Calculates stop price.\n    /// @return Returns stop price.\n    function calcStopPrice()\n        view\n        public\n        returns (uint)\n    {\n        return totalReceived * 10**18 / MAX_TOKENS_SOLD + 1;\n    }\n\n    /// @dev Calculates token price.\n    /// @return Returns token price.\n    function calcTokenPrice()\n        view\n        public\n        returns (uint)\n    {\n        return priceFactor * 10**18 / (block.number - startBlock + 7500) + 1;\n    }\n\n    /*\n     *  Private functions\n     */\n    function finalizeAuction()\n        private\n    {\n        stage = Stages.AuctionEnded;\n        if (totalReceived == ceiling)\n            finalPrice = calcTokenPrice();\n        else\n            finalPrice = calcStopPrice();\n        uint soldTokens = totalReceived * 10**18 / finalPrice;\n        // Auction contract transfers all unsold tokens to Gnosis inventory multisig\n        gnosisToken.transfer(wallet, MAX_TOKENS_SOLD - soldTokens);\n        endTime = now;\n    }\n}",
  "sourcePath": "/Users/huishun/Desktop/blockchain/contracts/DutchAuction.sol",
  "compiler": {
    "name": "solc",
    "version": "0.5.16+commit.9c3226ce.Emscripten.clang"
  },
  "schemaVersion": "3.2.5",
  "updatedAt": "2020-10-15T03:12:29.762Z",
  "devdoc": {
    "author": "Stefan George - <stefan.george@consensys.net>",
    "methods": {
      "bid(address)": {
        "details": "Allows to send a bid to the auction.",
        "params": {
          "receiver": "Bid will be assigned to this address if set."
        }
      },
      "calcCurrentTokenPrice()": {
        "details": "Calculates current token price.",
        "return": "Returns token price."
      },
      "calcStopPrice()": {
        "details": "Calculates stop price.",
        "return": "Returns stop price."
      },
      "calcTokenPrice()": {
        "details": "Calculates token price.",
        "return": "Returns token price."
      },
      "changeSettings(uint256,uint256)": {
        "details": "Changes auction ceiling and start price factor before auction is started.",
        "params": {
          "_ceiling": "Updated auction ceiling.",
          "_priceFactor": "Updated start price factor."
        }
      },
      "claimTokens(address)": {
        "details": "Claims tokens for bidder after auction.",
        "params": {
          "receiver": "Tokens will be assigned to this address if set."
        }
      },
      "constructor": {
        "details": "Contract constructor function sets owner.",
        "params": {
          "_ceiling": "Auction ceiling.",
          "_priceFactor": "Auction price factor.",
          "_wallet": "Gnosis wallet."
        }
      },
      "setup(address)": {
        "details": "Setup function sets external contracts' addresses.",
        "params": {
          "_gnosisToken": "Gnosis token address."
        }
      },
      "startAuction()": {
        "details": "Starts auction and sets startBlock."
      },
      "updateStage()": {
        "details": "Returns correct stage, even if a function with timedTransitions modifier has not yet been called yet.",
        "return": "Returns current auction stage."
      }
    },
    "title": "Dutch auction contract - distribution of Gnosis tokens using an auction."
  },
  "userdoc": {
    "methods": {}
  }
}