{
  "contractName": "DutchAuction",
  "abi": [
    {
      "anonymous": false,
      "inputs": [
        {
          "indexed": true,
          "internalType": "address",
          "name": "sender",
          "type": "address"
        },
        {
          "indexed": false,
          "internalType": "uint256",
          "name": "amount",
          "type": "uint256"
        }
      ],
      "name": "BidSubmission",
      "type": "event"
    },
    {
      "constant": true,
      "inputs": [],
      "name": "MAX_TOKENS_SOLD",
      "outputs": [
        {
          "internalType": "uint256",
          "name": "",
          "type": "uint256"
        }
      ],
      "payable": false,
      "stateMutability": "view",
      "type": "function"
    },
    {
      "constant": true,
      "inputs": [],
      "name": "WAITING_PERIOD",
      "outputs": [
        {
          "internalType": "uint256",
          "name": "",
          "type": "uint256"
        }
      ],
      "payable": false,
      "stateMutability": "view",
      "type": "function"
    },
    {
      "constant": true,
      "inputs": [
        {
          "internalType": "address",
          "name": "",
          "type": "address"
        }
      ],
      "name": "bids",
      "outputs": [
        {
          "internalType": "uint256",
          "name": "",
          "type": "uint256"
        }
      ],
      "payable": false,
      "stateMutability": "view",
      "type": "function"
    },
    {
      "constant": true,
      "inputs": [],
      "name": "ceiling",
      "outputs": [
        {
          "internalType": "uint256",
          "name": "",
          "type": "uint256"
        }
      ],
      "payable": false,
      "stateMutability": "view",
      "type": "function"
    },
    {
      "constant": true,
      "inputs": [],
      "name": "endTime",
      "outputs": [
        {
          "internalType": "uint256",
          "name": "",
          "type": "uint256"
        }
      ],
      "payable": false,
      "stateMutability": "view",
      "type": "function"
    },
    {
      "constant": true,
      "inputs": [],
      "name": "finalPrice",
      "outputs": [
        {
          "internalType": "uint256",
          "name": "",
          "type": "uint256"
        }
      ],
      "payable": false,
      "stateMutability": "view",
      "type": "function"
    },
    {
      "constant": true,
      "inputs": [],
      "name": "gnosisToken",
      "outputs": [
        {
          "internalType": "contract Token",
          "name": "",
          "type": "address"
        }
      ],
      "payable": false,
      "stateMutability": "view",
      "type": "function"
    },
    {
      "constant": true,
      "inputs": [],
      "name": "owner",
      "outputs": [
        {
          "internalType": "address",
          "name": "",
          "type": "address"
        }
      ],
      "payable": false,
      "stateMutability": "view",
      "type": "function"
    },
    {
      "constant": true,
      "inputs": [],
      "name": "priceFactor",
      "outputs": [
        {
          "internalType": "uint256",
          "name": "",
          "type": "uint256"
        }
      ],
      "payable": false,
      "stateMutability": "view",
      "type": "function"
    },
    {
      "constant": true,
      "inputs": [],
      "name": "stage",
      "outputs": [
        {
          "internalType": "enum DutchAuction.Stages",
          "name": "",
          "type": "uint8"
        }
      ],
      "payable": false,
      "stateMutability": "view",
      "type": "function"
    },
    {
      "constant": true,
      "inputs": [],
      "name": "startBlock",
      "outputs": [
        {
          "internalType": "uint256",
          "name": "",
          "type": "uint256"
        }
      ],
      "payable": false,
      "stateMutability": "view",
      "type": "function"
    },
    {
      "constant": true,
      "inputs": [],
      "name": "totalReceived",
      "outputs": [
        {
          "internalType": "uint256",
          "name": "",
          "type": "uint256"
        }
      ],
      "payable": false,
      "stateMutability": "view",
      "type": "function"
    },
    {
      "constant": true,
      "inputs": [],
      "name": "wallet",
      "outputs": [
        {
          "internalType": "address payable",
          "name": "",
          "type": "address"
        }
      ],
      "payable": false,
      "stateMutability": "view",
      "type": "function"
    },
    {
      "constant": false,
      "inputs": [
        {
          "internalType": "address payable",
          "name": "_wallet",
          "type": "address"
        },
        {
          "internalType": "uint256",
          "name": "_ceiling",
          "type": "uint256"
        },
        {
          "internalType": "uint256",
          "name": "_priceFactor",
          "type": "uint256"
        }
      ],
      "name": "DutchAuctionFunc",
      "outputs": [],
      "payable": false,
      "stateMutability": "nonpayable",
      "type": "function"
    },
    {
      "constant": false,
      "inputs": [
        {
          "internalType": "address",
          "name": "_gnosisToken",
          "type": "address"
        }
      ],
      "name": "setup",
      "outputs": [],
      "payable": false,
      "stateMutability": "nonpayable",
      "type": "function"
    },
    {
      "constant": false,
      "inputs": [],
      "name": "startAuction",
      "outputs": [],
      "payable": false,
      "stateMutability": "nonpayable",
      "type": "function"
    },
    {
      "constant": false,
      "inputs": [
        {
          "internalType": "uint256",
          "name": "_ceiling",
          "type": "uint256"
        },
        {
          "internalType": "uint256",
          "name": "_priceFactor",
          "type": "uint256"
        }
      ],
      "name": "changeSettings",
      "outputs": [],
      "payable": false,
      "stateMutability": "nonpayable",
      "type": "function"
    },
    {
      "constant": false,
      "inputs": [],
      "name": "calcCurrentTokenPrice",
      "outputs": [
        {
          "internalType": "uint256",
          "name": "",
          "type": "uint256"
        }
      ],
      "payable": false,
      "stateMutability": "nonpayable",
      "type": "function"
    },
    {
      "constant": false,
      "inputs": [],
      "name": "updateStage",
      "outputs": [
        {
          "internalType": "enum DutchAuction.Stages",
          "name": "",
          "type": "uint8"
        }
      ],
      "payable": false,
      "stateMutability": "nonpayable",
      "type": "function"
    },
    {
      "constant": false,
      "inputs": [
        {
          "internalType": "address payable",
          "name": "receiver",
          "type": "address"
        }
      ],
      "name": "bid",
      "outputs": [
        {
          "internalType": "uint256",
          "name": "amount",
          "type": "uint256"
        }
      ],
      "payable": true,
      "stateMutability": "payable",
      "type": "function"
    },
    {
      "constant": false,
      "inputs": [
        {
          "internalType": "address",
          "name": "receiver",
          "type": "address"
        }
      ],
      "name": "claimTokens",
      "outputs": [],
      "payable": false,
      "stateMutability": "nonpayable",
      "type": "function"
    },
    {
      "constant": true,
      "inputs": [],
      "name": "calcStopPrice",
      "outputs": [
        {
          "internalType": "uint256",
          "name": "",
          "type": "uint256"
        }
      ],
      "payable": false,
      "stateMutability": "view",
      "type": "function"
    },
    {
      "constant": true,
      "inputs": [],
      "name": "calcTokenPrice",
      "outputs": [
        {
          "internalType": "uint256",
          "name": "",
          "type": "uint256"
        }
      ],
      "payable": false,
      "stateMutability": "view",
      "type": "function"
    }
  ],
  "bytecode": "0x608060405234801561001057600080fd5b506115f6806100206000396000f3fe6080604052600436106101405760003560e01c8063753ed1bd116100b6578063c062f5781161006f578063c062f57814610545578063d9f8a4e21461057e578063dd9dd688146105a9578063df8de3e7146105d4578063dfb2866d14610625578063f3f375a91461065057610140565b8063753ed1bd146103dc5780638da5cb5b146104075780639cf5453d1461045e578063a3c2c462146104b6578063a6b513ee146104e1578063c040e6b81461050c57610140565b8063521eb27311610108578063521eb2731461023657806360fd902c1461028d57806362ea82db146102e457806366d38203146103495780636b64c7691461039a5780636f85c7e4146103b157610140565b806317f5de95146101455780633197cbb61461017057806336d02c941461019b57806339f64b52146101e057806348cd4cb11461020b575b600080fd5b34801561015157600080fd5b5061015a6106b5565b6040518082815260200191505060405180910390f35b34801561017c57600080fd5b506101856106c4565b6040518082815260200191505060405180910390f35b3480156101a757600080fd5b506101de600480360360408110156101be57600080fd5b8101908080359060200190929190803590602001909291905050506106ca565b005b3480156101ec57600080fd5b506101f561076a565b6040518082815260200191505060405180910390f35b34801561021757600080fd5b50610220610792565b6040518082815260200191505060405180910390f35b34801561024257600080fd5b5061024b610798565b604051808273ffffffffffffffffffffffffffffffffffffffff1673ffffffffffffffffffffffffffffffffffffffff16815260200191505060405180910390f35b34801561029957600080fd5b506102a26107be565b604051808273ffffffffffffffffffffffffffffffffffffffff1673ffffffffffffffffffffffffffffffffffffffff16815260200191505060405180910390f35b3480156102f057600080fd5b506103336004803603602081101561030757600080fd5b81019080803573ffffffffffffffffffffffffffffffffffffffff1690602001909291905050506107e3565b6040518082815260200191505060405180910390f35b34801561035557600080fd5b506103986004803603602081101561036c57600080fd5b81019080803573ffffffffffffffffffffffffffffffffffffffff1690602001909291905050506107fb565b005b3480156103a657600080fd5b506103af610a1b565b005b3480156103bd57600080fd5b506103c6610ad6565b6040518082815260200191505060405180910390f35b3480156103e857600080fd5b506103f1610add565b6040518082815260200191505060405180910390f35b34801561041357600080fd5b5061041c610ae3565b604051808273ffffffffffffffffffffffffffffffffffffffff1673ffffffffffffffffffffffffffffffffffffffff16815260200191505060405180910390f35b6104a06004803603602081101561047457600080fd5b81019080803573ffffffffffffffffffffffffffffffffffffffff169060200190929190505050610b09565b6040518082815260200191505060405180910390f35b3480156104c257600080fd5b506104cb610e16565b6040518082815260200191505060405180910390f35b3480156104ed57600080fd5b506104f6610e1c565b6040518082815260200191505060405180910390f35b34801561051857600080fd5b50610521610e22565b6040518082600481111561053157fe5b60ff16815260200191505060405180910390f35b34801561055157600080fd5b5061055a610e35565b6040518082600481111561056a57fe5b60ff16815260200191505060405180910390f35b34801561058a57600080fd5b50610593610f02565b6040518082815260200191505060405180910390f35b3480156105b557600080fd5b506105be61102f565b6040518082815260200191505060405180910390f35b3480156105e057600080fd5b50610623600480360360208110156105f757600080fd5b81019080803573ffffffffffffffffffffffffffffffffffffffff16906020019092919050505061105a565b005b34801561063157600080fd5b5061063a611327565b6040518082815260200191505060405180910390f35b34801561065c57600080fd5b506106b36004803603606081101561067357600080fd5b81019080803573ffffffffffffffffffffffffffffffffffffffff169060200190929190803590602001909291908035906020019092919050505061132d565b005b6a0771d2fa45345aa900000081565b60065481565b600160009054906101000a900473ffffffffffffffffffffffffffffffffffffffff1673ffffffffffffffffffffffffffffffffffffffff163373ffffffffffffffffffffffffffffffffffffffff161461072457600080fd5b600180600481111561073257fe5b600a60009054906101000a900460ff16600481111561074d57fe5b1461075757600080fd5b8260038190555081600481905550505050565b60006001611d4c600554430301670de0b6b3a7640000600454028161078b57fe5b0401905090565b60055481565b600160009054906101000a900473ffffffffffffffffffffffffffffffffffffffff1681565b6000809054906101000a900473ffffffffffffffffffffffffffffffffffffffff1681565b60096020528060005260406000206000915090505481565b600260009054906101000a900473ffffffffffffffffffffffffffffffffffffffff1673ffffffffffffffffffffffffffffffffffffffff163373ffffffffffffffffffffffffffffffffffffffff161461085557600080fd5b600080600481111561086357fe5b600a60009054906101000a900460ff16600481111561087e57fe5b1461088857600080fd5b600073ffffffffffffffffffffffffffffffffffffffff168273ffffffffffffffffffffffffffffffffffffffff1614156108c257600080fd5b816000806101000a81548173ffffffffffffffffffffffffffffffffffffffff021916908373ffffffffffffffffffffffffffffffffffffffff1602179055506a0771d2fa45345aa90000006000809054906101000a900473ffffffffffffffffffffffffffffffffffffffff1673ffffffffffffffffffffffffffffffffffffffff166370a08231306040518263ffffffff1660e01b8152600401808273ffffffffffffffffffffffffffffffffffffffff1673ffffffffffffffffffffffffffffffffffffffff168152602001915050602060405180830381600087803b1580156109ae57600080fd5b505af11580156109c2573d6000803e3d6000fd5b505050506040513d60208110156109d857600080fd5b8101908080519060200190929190505050146109f357600080fd5b6001600a60006101000a81548160ff02191690836004811115610a1257fe5b02179055505050565b600160009054906101000a900473ffffffffffffffffffffffffffffffffffffffff1673ffffffffffffffffffffffffffffffffffffffff163373ffffffffffffffffffffffffffffffffffffffff1614610a7557600080fd5b6001806004811115610a8357fe5b600a60009054906101000a900460ff166004811115610a9e57fe5b14610aa857600080fd5b6002600a60006101000a81548160ff02191690836004811115610ac757fe5b02179055504360058190555050565b62093a8081565b60035481565b600260009054906101000a900473ffffffffffffffffffffffffffffffffffffffff1681565b60006004600036905014158015610b2557506024600036905014155b15610b2f57600080fd5b60026004811115610b3c57fe5b600a60009054906101000a900460ff166004811115610b5757fe5b148015610b725750610b6761102f565b610b6f61076a565b11155b15610b8057610b7f611436565b5b60036004811115610b8d57fe5b600a60009054906101000a900460ff166004811115610ba857fe5b148015610bbb575062093a806006540142115b15610be5576004600a60006101000a81548160ff02191690836004811115610bdf57fe5b02179055505b6002806004811115610bf357fe5b600a60009054906101000a900460ff166004811115610c0e57fe5b14610c1857600080fd5b600073ffffffffffffffffffffffffffffffffffffffff168373ffffffffffffffffffffffffffffffffffffffff161415610c51573392505b3491506000600754610c6161076a565b670de0b6b3a76400006a0771d2fa45345aa900000081610c7d57fe5b0402039050600060075460035403905081811015610c99578091505b81841115610ce5578193508473ffffffffffffffffffffffffffffffffffffffff166108fc8534039081150290604051600060405180830381858888f19350505050610ce457600080fd5b5b6000841480610d485750600160009054906101000a900473ffffffffffffffffffffffffffffffffffffffff1673ffffffffffffffffffffffffffffffffffffffff166108fc859081150290604051600060405180830381858888f19350505050155b15610d5257600080fd5b83600960008773ffffffffffffffffffffffffffffffffffffffff1673ffffffffffffffffffffffffffffffffffffffff168152602001908152602001600020600082825401925050819055508360076000828254019250508190555083821415610dc057610dbf611436565b5b8473ffffffffffffffffffffffffffffffffffffffff167f9c89e828e6cee6374b68147c9e753e41746aad98ba255a527a4fc0ac1868bff9856040518082815260200191505060405180910390a2505050919050565b60075481565b60085481565b600a60009054906101000a900460ff1681565b600060026004811115610e4457fe5b600a60009054906101000a900460ff166004811115610e5f57fe5b148015610e7a5750610e6f61102f565b610e7761076a565b11155b15610e8857610e87611436565b5b60036004811115610e9557fe5b600a60009054906101000a900460ff166004811115610eb057fe5b148015610ec3575062093a806006540142115b15610eed576004600a60006101000a81548160ff02191690836004811115610ee757fe5b02179055505b600a60009054906101000a900460ff16905090565b600060026004811115610f1157fe5b600a60009054906101000a900460ff166004811115610f2c57fe5b148015610f475750610f3c61102f565b610f4461076a565b11155b15610f5557610f54611436565b5b60036004811115610f6257fe5b600a60009054906101000a900460ff166004811115610f7d57fe5b148015610f90575062093a806006540142115b15610fba576004600a60006101000a81548160ff02191690836004811115610fb457fe5b02179055505b60036004811115610fc757fe5b600a60009054906101000a900460ff166004811115610fe257fe5b14806110125750600480811115610ff557fe5b600a60009054906101000a900460ff16600481111561101057fe5b145b1561102157600854905061102c565b61102961076a565b90505b90565b600060016a0771d2fa45345aa9000000670de0b6b3a7640000600754028161105357fe5b0401905090565b600460003690501415801561107457506024600036905014155b1561107e57600080fd5b6002600481111561108b57fe5b600a60009054906101000a900460ff1660048111156110a657fe5b1480156110c157506110b661102f565b6110be61076a565b11155b156110cf576110ce611436565b5b600360048111156110dc57fe5b600a60009054906101000a900460ff1660048111156110f757fe5b14801561110a575062093a806006540142115b15611134576004600a60006101000a81548160ff0219169083600481111561112e57fe5b02179055505b600480600481111561114257fe5b600a60009054906101000a900460ff16600481111561115d57fe5b1461116757600080fd5b600073ffffffffffffffffffffffffffffffffffffffff168273ffffffffffffffffffffffffffffffffffffffff1614156111a0573391505b6000600854670de0b6b3a7640000600960008673ffffffffffffffffffffffffffffffffffffffff1673ffffffffffffffffffffffffffffffffffffffff1681526020019081526020016000205402816111f657fe5b0490506000600960008573ffffffffffffffffffffffffffffffffffffffff1673ffffffffffffffffffffffffffffffffffffffff168152602001908152602001600020819055506000809054906101000a900473ffffffffffffffffffffffffffffffffffffffff1673ffffffffffffffffffffffffffffffffffffffff1663a9059cbb84836040518363ffffffff1660e01b8152600401808373ffffffffffffffffffffffffffffffffffffffff1673ffffffffffffffffffffffffffffffffffffffff16815260200182815260200192505050602060405180830381600087803b1580156112e657600080fd5b505af11580156112fa573d6000803e3d6000fd5b505050506040513d602081101561131057600080fd5b810190808051906020019092919050505050505050565b60045481565b600073ffffffffffffffffffffffffffffffffffffffff168373ffffffffffffffffffffffffffffffffffffffff1614806113685750600082145b806113735750600081145b1561137d57600080fd5b33600260006101000a81548173ffffffffffffffffffffffffffffffffffffffff021916908373ffffffffffffffffffffffffffffffffffffffff16021790555082600160006101000a81548173ffffffffffffffffffffffffffffffffffffffff021916908373ffffffffffffffffffffffffffffffffffffffff16021790555081600381905550806004819055506000600a60006101000a81548160ff0219169083600481111561142c57fe5b0217905550505050565b6003600a60006101000a81548160ff0219169083600481111561145557fe5b021790555060035460075414156114795761146e61076a565b600881905550611488565b61148161102f565b6008819055505b6000600854670de0b6b3a764000060075402816114a157fe5b0490506000809054906101000a900473ffffffffffffffffffffffffffffffffffffffff1673ffffffffffffffffffffffffffffffffffffffff1663a9059cbb600160009054906101000a900473ffffffffffffffffffffffffffffffffffffffff16836a0771d2fa45345aa9000000036040518363ffffffff1660e01b8152600401808373ffffffffffffffffffffffffffffffffffffffff1673ffffffffffffffffffffffffffffffffffffffff16815260200182815260200192505050602060405180830381600087803b15801561157b57600080fd5b505af115801561158f573d6000803e3d6000fd5b505050506040513d60208110156115a557600080fd5b810190808051906020019092919050505050426006819055505056fea265627a7a72315820028cfde5e6652126e2f839904a62d55b4821e0a04cf9035e6061debb5052079564736f6c63430005100032",
  "source": "pragma solidity ^0.5.16;\nimport \"./Tokens/AbstractToken.sol\";\n\n\n/// @title Dutch auction contract - distribution of Gnosis tokens using an auction.\n/// @author Stefan George - <stefan.george@consensys.net>\ncontract DutchAuction {\n\n    /*\n     *  Events\n     */\n    event BidSubmission(address indexed sender, uint256 amount);\n\n    /*\n     *  Constants\n     */\n    uint constant public MAX_TOKENS_SOLD = 9000000 * 10**18; // 9M\n    uint constant public WAITING_PERIOD = 7 days;\n\n    /*\n     *  Storage\n     */\n    Token public gnosisToken;\n    address payable public wallet;\n    address public owner;\n    uint public ceiling;\n    uint public priceFactor;\n    uint public startBlock;\n    uint public endTime;\n    uint public totalReceived;\n    uint public finalPrice;\n    mapping (address => uint) public bids;\n    Stages public stage;\n\n    /*\n     *  Enums\n     */\n    enum Stages {\n        AuctionDeployed,\n        AuctionSetUp,\n        AuctionStarted,\n        AuctionEnded,\n        TradingStarted\n    }\n\n    /*\n     *  Modifiers\n     */\n    modifier atStage(Stages _stage) {\n        if (stage != _stage)\n            // Contract not in expected state\n            revert();\n        _;\n    }\n\n    modifier isOwner() {\n        if (msg.sender != owner)\n            // Only owner is allowed to proceed\n            revert();\n        _;\n    }\n\n    modifier isWallet() {\n        if (msg.sender != wallet)\n            // Only wallet is allowed to proceed\n            revert();\n        _;\n    }\n\n    modifier isValidPayload() {\n        if (msg.data.length != 4 && msg.data.length != 36)\n            revert();\n        _;\n    }\n\n    modifier timedTransitions() {\n        if (stage == Stages.AuctionStarted && calcTokenPrice() <= calcStopPrice())\n            finalizeAuction();\n        if (stage == Stages.AuctionEnded && now > endTime + WAITING_PERIOD)\n            stage = Stages.TradingStarted;\n        _;\n    }\n\n    /*\n     *  Public functions\n     */\n    /// @dev Contract constructor function sets owner.\n    /// @param _wallet Gnosis wallet.\n    /// @param _ceiling Auction ceiling.\n    /// @param _priceFactor Auction price factor.\n    function DutchAuctionFunc(address payable _wallet, uint _ceiling, uint _priceFactor)\n        public\n    {\n        if (_wallet == address(0) || _ceiling == 0 || _priceFactor == 0)\n            // Arguments are null.\n            revert();\n        owner = msg.sender;\n        wallet = _wallet;\n        ceiling = _ceiling;\n        priceFactor = _priceFactor;\n        stage = Stages.AuctionDeployed;\n    }\n\n    /// @dev Setup function sets external contracts' addresses.\n    /// @param _gnosisToken Gnosis token address.\n    function setup(address _gnosisToken)\n        public\n        isOwner\n        atStage(Stages.AuctionDeployed)\n    {\n        if (_gnosisToken == address(0))\n            // Argument is null.\n            revert();\n        gnosisToken = Token(_gnosisToken);\n        // Validate token balance\n        if (gnosisToken.balanceOf(address(this)) != MAX_TOKENS_SOLD)\n            revert();\n        stage = Stages.AuctionSetUp;\n    }\n\n    /// @dev Starts auction and sets startBlock.\n    function startAuction()\n        public\n        isWallet\n        atStage(Stages.AuctionSetUp)\n    {\n        stage = Stages.AuctionStarted;\n        startBlock = block.number;\n    }\n\n    /// @dev Changes auction ceiling and start price factor before auction is started.\n    /// @param _ceiling Updated auction ceiling.\n    /// @param _priceFactor Updated start price factor.\n    function changeSettings(uint _ceiling, uint _priceFactor)\n        public\n        isWallet\n        atStage(Stages.AuctionSetUp)\n    {\n        ceiling = _ceiling;\n        priceFactor = _priceFactor;\n    }\n\n    /// @dev Calculates current token price.\n    /// @return Returns token price.\n    function calcCurrentTokenPrice()\n        public\n        timedTransitions\n        returns (uint)\n    {\n        if (stage == Stages.AuctionEnded || stage == Stages.TradingStarted)\n            return finalPrice;\n        return calcTokenPrice();\n    }\n\n    /// @dev Returns correct stage, even if a function with timedTransitions modifier has not yet been called yet.\n    /// @return Returns current auction stage.\n    function updateStage()\n        public\n        timedTransitions\n        returns (Stages)\n    {\n        return stage;\n    }\n\n    /// @dev Allows to send a bid to the auction.\n    /// @param receiver Bid will be assigned to this address if set.\n    function bid(address payable receiver)\n        public\n        payable\n        isValidPayload\n        timedTransitions\n        atStage(Stages.AuctionStarted)\n        returns (uint amount)\n    {\n        // If a bid is done on behalf of a user via ShapeShift, the receiver address is set.\n        if (receiver == address(0))\n            receiver = msg.sender;\n        amount = msg.value;\n        // Prevent that more than 90% of tokens are sold. Only relevant if cap not reached.\n        uint maxWei = (MAX_TOKENS_SOLD / 10**18) * calcTokenPrice() - totalReceived;\n        uint maxWeiBasedOnTotalReceived = ceiling - totalReceived;\n        if (maxWeiBasedOnTotalReceived < maxWei)\n            maxWei = maxWeiBasedOnTotalReceived;\n        // Only invest maximum possible amount.\n        if (amount > maxWei) {\n            amount = maxWei;\n            // Send change back to receiver address. In case of a ShapeShift bid the user receives the change back directly.\n            if (!receiver.send(msg.value - amount))\n                // Sending failed\n                revert();\n        }\n        // Forward funding to ether wallet\n        if (amount == 0 || !wallet.send(amount))\n            // No amount sent or sending failed\n            revert();\n        bids[receiver] += amount;\n        totalReceived += amount;\n        if (maxWei == amount)\n            // When maxWei is equal to the big amount the auction is ended and finalizeAuction is triggered.\n            finalizeAuction();\n        emit BidSubmission(receiver, amount);\n    }\n\n    /// @dev Claims tokens for bidder after auction.\n    /// @param receiver Tokens will be assigned to this address if set.\n    function claimTokens(address receiver)\n        public\n        isValidPayload\n        timedTransitions\n        atStage(Stages.TradingStarted)\n    {\n        if (receiver == address(0))\n            receiver = msg.sender;\n        uint tokenCount = bids[receiver] * 10**18 / finalPrice;\n        bids[receiver] = 0;\n        gnosisToken.transfer(receiver, tokenCount);\n    }\n\n    /// @dev Calculates stop price.\n    /// @return Returns stop price.\n    function calcStopPrice()\n        view\n        public\n        returns (uint)\n    {\n        return totalReceived * 10**18 / MAX_TOKENS_SOLD + 1;\n    }\n\n    /// @dev Calculates token price.\n    /// @return Returns token price.\n    function calcTokenPrice()\n        view\n        public\n        returns (uint)\n    {\n        return priceFactor * 10**18 / (block.number - startBlock + 7500) + 1;\n    }\n\n    /*\n     *  Private functions\n     */\n    function finalizeAuction()\n        private\n    {\n        stage = Stages.AuctionEnded;\n        if (totalReceived == ceiling)\n            finalPrice = calcTokenPrice();\n        else\n            finalPrice = calcStopPrice();\n        uint soldTokens = totalReceived * 10**18 / finalPrice;\n        // Auction contract transfers all unsold tokens to Gnosis inventory multisig\n        gnosisToken.transfer(wallet, MAX_TOKENS_SOLD - soldTokens);\n        endTime = now;\n    }\n}",
  "sourcePath": "/Users/huishun/Desktop/blockchain/contracts/DutchAuction.sol",
  "compiler": {
    "name": "solc",
    "version": "0.5.16+commit.9c3226ce.Emscripten.clang"
  },
  "schemaVersion": "3.2.5",
  "updatedAt": "2020-10-14T14:31:22.991Z",
  "networkType": "ethereum",
  "devdoc": {
    "author": "Stefan George - <stefan.george@consensys.net>",
    "methods": {
      "DutchAuctionFunc(address,uint256,uint256)": {
        "details": "Contract constructor function sets owner.",
        "params": {
          "_ceiling": "Auction ceiling.",
          "_priceFactor": "Auction price factor.",
          "_wallet": "Gnosis wallet."
        }
      },
      "bid(address)": {
        "details": "Allows to send a bid to the auction.",
        "params": {
          "receiver": "Bid will be assigned to this address if set."
        }
      },
      "calcCurrentTokenPrice()": {
        "details": "Calculates current token price.",
        "return": "Returns token price."
      },
      "calcStopPrice()": {
        "details": "Calculates stop price.",
        "return": "Returns stop price."
      },
      "calcTokenPrice()": {
        "details": "Calculates token price.",
        "return": "Returns token price."
      },
      "changeSettings(uint256,uint256)": {
        "details": "Changes auction ceiling and start price factor before auction is started.",
        "params": {
          "_ceiling": "Updated auction ceiling.",
          "_priceFactor": "Updated start price factor."
        }
      },
      "claimTokens(address)": {
        "details": "Claims tokens for bidder after auction.",
        "params": {
          "receiver": "Tokens will be assigned to this address if set."
        }
      },
      "setup(address)": {
        "details": "Setup function sets external contracts' addresses.",
        "params": {
          "_gnosisToken": "Gnosis token address."
        }
      },
      "startAuction()": {
        "details": "Starts auction and sets startBlock."
      },
      "updateStage()": {
        "details": "Returns correct stage, even if a function with timedTransitions modifier has not yet been called yet.",
        "return": "Returns current auction stage."
      }
    },
    "title": "Dutch auction contract - distribution of Gnosis tokens using an auction."
  },
  "userdoc": {
    "methods": {}
  }
}